S00C00006D61696E2E7372656373
S11300000C9497050C94B4050C94B4050C94B405A5
S11300100C94B4050C94B4050C94B4050C94B40578
S11300200C94B4050C94B4050C94B4050C94B40568
S11300300C94B4050C94B4050C94B4050C94B40558
S11300400C94B4050C94B4050C94B4050C94B40548
S11300500C94B4050C94B4050C94B4050C94B40538
S11300600C94B4050C94B4056E616E00696E660060
S113007000407A10F35A00A0724E18090010A5D45B
S1130080E80000E87648170000E40B54020000CAB8
S11300909A3B000000E1F5050000809698000000FE
S11300A040420F000000A08601000000102700005D
S11300B00000E803000000006400000000000A00E3
S11300C0000000000100000000002C76D888DC67E6
S11300D04F0823DFC1DFAE59E1B1B796E5E3E4533E
S11300E0C63AE651997696E8E6C28426EB898C9B5B
S11300F062ED407C6FFCEFBC9C9F40F2BAA56FA5FB
S1130100F490055A2AF75C936B6CF9676DC11BFC7C
S1130110E0E40D47FEF520E6B500D0ED902E030097
S1130120943577050080841E080000204E0A0000E4
S113013000C80C333333330F986E12831141EF8DA3
S11301402114893BE65516CFFEE6DB18D1844B38E3
S11301501BF77C1D901DA4BBE424203284725E2214
S11301608100C9F124ECA1E53D2720202020202096
S1130170202020202020202020202020202020207B
S1130180202020202020202020202020202020206B
S1130190202020202020202020202020202020205B
S11301A0202020202020202020202020202020204B
S11301B00A0D202020202020202020202020202064
S11301C0202020202020202020202020202020202B
S11301D0202020202020202020202020202020201B
S11301E020202020202020202020402020202020EB
S11301F020202020202020200A0D20202020202024
S113020020202020202020202020202020202020EA
S113021020202020202020202020202020202020DA
S113022020202020202020202020202020202020CA
S1130230404020202020202020202020202020207A
S11302400A0D2020202020202020202020202020D3
S1130250202020202020202020202020202020209A
S1130260202020202020202020202020202020208A
S1130270202020202020204040402020202020201A
S113028020202020202020200A0D20202020202093
S1130290202020202020202020202020202020205A
S11302A0202020202020202020202020202020204A
S11302B020202020202020202020202020204040FA
S11302C0402020202020202020202020202020200A
S11302D00A0D202020202020202020202020202043
S11302E0202020202020202020202020202020200A
S11302F020202020202020202020202020202020FA
S11303002020202020404040202020202020202089
S113031020202020202020200A0D20202020202002
S113032020202020202020202020202020202020C9
S113033020202020202020202020202020202020B9
S11303402020202020202020202020404040402029
S11303502020202020202020202020202020202099
S11303600A0D2020202020202020202020202020B2
S11303702020202020202020202020202020202079
S11303802020202020202020202020202020202069
S113039020204040402020202020202020202020F9
S11303A020202020202020200A0D20202020202072
S11303B02020202020202020202020202020202039
S11303C02020202020202020202020202020202029
S11303D02020202020202020404040402020202099
S11303E02020202020202020202020202020202009
S11303F00A0D202020202020202020202020202022
S113040020202020202020202020202020202020E8
S11304102020202020202020202020202020404098
S11304204040202020202020202020202020202088
S113043020202020202020200A0D202020202020E1
S11304402020202020202020202020404040402028
S11304502020202020202020202020202020202098
S11304602020202040404040202020202020202008
S11304702020202020202020202020202020202078
S11304800A0D202020202020202020202020202091
S11304902040202020203D404020202020202020DB
S11304A020202020202020202020404040402020C8
S11304B02020202020202020202020202020202038
S11304C020202020202020200A0D20202020202051
S11304D02020202020202020204025202E202040C5
S11304E040202020202020202020202020202020E8
S11304F04040404020202020204020202020202058
S113050020202020202020202020202020202020E7
S11305100A0D202020202020202020202020202000
S11305202020404040404040202020202020202007
S11305302020202020204040402020202020204037
S11305404040202020202020202020202020202067
S113055020202020202020200A0D202020202020C0
S11305602020202020202020202020202020202087
S113057020202020202020202020204040404020F7
S113058020202020404040404040202020202020A7
S11305902020202020202020202020202020202057
S11305A00A0D202020202020202020202020202070
S11305B020202020202040402020202020202020F7
S11305C04040404020202020204040202020404027
S11305D040404040404040404040202020202020D7
S11305E020202020202020200A0D20202020202030
S11305F02020202020202020202025404040404052
S11306002020202020404040402020202020404026
S113061040404020202020404040402020202020F6
S113062020202020202020202020202020202020C6
S11306300A0D2020202020202020202020202020DF
S113064020202040404040402020404040202020A6
S113065020202020202020404040402020202040F6
S11306604040202020202020202020202020202046
S113067020202020202020200A0D2020202020209F
S113068020202020202020202020202040404040E6
S113069040202020202020402020202020202040F6
S11306A04040402020202040404020202020202086
S11306B02020202020202020202020202020202036
S11306C00A0D20202020202020202020202020204F
S11306D020204040404040402020204040404040B6
S11306E02020202020202040404040202020204066
S11306F040402020202020202020202020202020B6
S113070020202020202020200A0D2020202020200E
S11307102020202020202020202020204040404055
S11307202020202040404040202020202020204025
S113073040404020202020404040202020202020F5
S113074020202020202020202020202020202020A5
S11307500A0D2020202020202020202020202020BE
S11307602020202040404040202020203D40404088
S113077020202020202020404040402020202040D5
S11307804040202020202020202020202020202025
S113079020202020202020200A0D2020202020207E
S11307A020202020202020202020202040404040C5
S11307B020202020254040402020202020202040B0
S11307C04040402020202040404020202020202065
S11307D02020202020202020202020202020202015
S11307E00A0D20202020202020202020202020202E
S11307F02020202040404040202020202540404010
S11308002020202020202040404040202020204044
S11308104040202020202020202020202020202094
S113082020202020202020200A0D202020202020ED
S11308302020202020202020202020204040404034
S1130840202020202540404020202020202020401F
S113085040404020202020404040202020202020D4
S11308602020202020202020202020202020202084
S11308700A0D20202020202020202020202020209D
S11308802020202040404040202020202A4040407A
S113089020202020202020404040402020202040B4
S11308A040404020202020202020202020202020E4
S11308B020202020202020200A0D2020202020205D
S11308C020202020202020202020202040404040A4
S11308D02020202020404040402020202040404034
S11308E04040402020202020404040404020202004
S11308F020402020202020202020202020202020D4
S11309000A0D20202020202020202020202020200C
S11309102040404040404040404040402020204053
S11309204040404020202040404040404020202083
S113093020404040404040404020202020202020B3
S113094020202020202020200A0D202020202020CC
S11309502020202020202020202020202020202093
S11309602020202020202020202020202020202083
S11309702020202020202020202020202020202073
S11309802020202020202020202020202020202063
S11309900A0D00000000000000000000000000003C
S11309A00000000000000000000000000000000043
S11309B00000000000000000000000000000000033
S11309C00000000000000000000000000000000023
S11309D00000000000000000000000000000000013
S11309E00000000000000000000000000000000003
S11309F000000000000000000000000000000000F3
S1130A0000000000000000000000000000000000E2
S1130A1000000000000000000000000000000000D2
S1130A2000000000000000000000000000000000C2
S1130A3000000000000000000000000000000000B2
S1130A4000000000000000000000000000000000A2
S1130A500000000000000000000000000000000092
S1130A600000000000000000000000000000000082
S1130A700000000000000000000000000000000072
S1130A800000000000000000000000000000000062
S1130A900000000000000000000000000000000052
S1130AA00000000000000000000000000000000042
S1130AB00000000000000000000000000000000032
S1130AC00000000000000000000000000000000022
S1130AD00000000000000000000000000000000012
S1130AE00000000000000000000000000000000002
S1130AF000000000000000000000000000000000F2
S1130B0000000000000000000000000000000000E1
S1130B1000000000000000000000000000000000D1
S1130B20000000000000000000000000000011248C
S1130B301FBECFEFD8E0DEBFCDBF11E0A0E0B1E033
S1130B40EEEFF7E102C005900D92AE30B107D9F790
S1130B5021E0AEE0B1E001C01D92A431B207E1F79B
S1130B600E9451060C94FD0B0C9400000E94860612
S1130B7084B1846084B985B18B7F85B986E00E9495
S1130B809B0685B1846085B985B18B7F85B981E089
S1130B900E949B0680E00E949B0685B1846085B913
S1130BA081E00895CF93DF931F92CDB7DEB719820A
S1130BB085B18B7F85B985E00E949B06CE010196A5
S1130BC00E94A00685B1846085B9898180FDF0CF3B
S1130BD00F90DF91CF9108951F93CF93DF93C82F88
S1130BE0D62F172F0E94D20585B18B7F85B986E059
S1130BF00E949B0685B1846085B90E94D20585B1A7
S1130C008B7F85B982E00E949B06812F0E949B0600
S1130C108D2F0E949B068C2F0E949B0685B18460B9
S1130C2085B981E0DF91CF911F9108950F931F93B0
S1130C30CF93DF9300D0CDB7DEB79A838983162F85
S1130C40072F85B18B7F85B90E94D20585B1846059
S1130C5085B985B18B7F85B983E00E949B06802F7F
S1130C600E949B06812F0E949B06CE0101960E9442
S1130C70A00685B1846085B989810F900F90DF91BA
S1130C80CF911F910F91089583E390E00E94A906EC
S1130C9080E091E090931101809310010E94B605C9
S1130CA00895CF93DF931F92CDB7DEB70E94440619
S1130CB000E010E006C0B8018EE20E94EC050F5F70
S1130CC01F4F093B8BE01807B4F300E010E009C0A4
S1130CD0F801E659FE4F8491B8010E94EC050F5FBC
S1130CE01F4F053C89E018079CF300E010E009C0A1
S1130CF0B801CE0101960E9416060E94BA060F5F43
S1130D001F4F053C89E018079CF3FFCF84B18C6228
S1130D1084B98FE58CBD85B1846085B985B18B7F3D
S1130D2085B985B1846085B985B18B7F85B985B175
S1130D30846085B908958EBD0DB407FEFDCF089576
S1130D402FEF2EBD0DB407FEFDCF2EB5FC01208381
S1130D5008959093C5008093C4001092C000E1EC04
S1130D60F0E088E180838EE08093C2008081806817
S1130D70808308959091C00095FFFCCF8093C600B6
S1130D800895A0E1B0E0E7ECF6E00C943E0A7C01A3
S1130D901B016A01FC0117821682838181FF44C30F
S1130DA09E012F5F3F4F3901F7019381F10193FDBC
S1130DB0859193FF81911F01882309F431C3853202
S1130DC039F493FD859193FF81911F01853239F4A4
S1130DD0B70190E00E94630B56016501E5CF10E076
S1130DE0512C912CFFE1F915D8F08B3279F038F4BD
S1130DF0803279F08332A1F4F92DF0612EC08D3266
S1130E0061F0803369F4292D21602DC0392D3260C1
S1130E10932E892D8460982E2AC0E92DE86015C090
S1130E2097FC2DC020ED280F2A3088F496FE06C0CA
S1130E303AE0139F200D1124122F19C08AE0589E06
S1130E40200D1124522EE92DE0629E2E10C08E3208
S1130E5031F496FCE5C2F92DF0649F2E08C08C365F
S1130E6021F4292D2068922E02C0883641F4F10124
S1130E7093FD859193FF81911F018111B3CF9BEB6A
S1130E80980F933020F4992D9061805E07C09BE900
S1130E90980F933008F066C1992D9F7E96FF16E057
S1130EA09F73992E853619F49064992E08C086365E
S1130EB021F4392F3068932E02C01111115097FE7E
S1130EC007C01C3350F444244394410E27E00BC064
S1130ED0183038F027E017E005C027E09CE3492EDE
S1130EE002C0212F412C560184E0A80EB11CF6014A
S1130EF06081718182819381042DA3010E94750A0E
S1130F006C01F981FC87F0FF02C0F3FF06C091FC7D
S1130F1006C092FE06C000E205C00DE203C00BE26B
S1130F2001C000E08C858C7019F001115AC29BC27B
S1130F3097FE10C04C0CFC85F4FF04C08A818133F9
S1130F4009F44A94141474F528E0241578F588E01B
S1130F50482E2CC096FC2AC0812F90E08C159D054C
S1130F609CF03CEFC3163FEFD30674F0892D8068E4
S1130F70982E0AC0E2E0F0E0EC0FFD1FE10FF11D36
S1130F808081803319F411501111F4CF97FE0EC0F3
S1130F9044244394410E812F90E0C816D9062CF4C2
S1130FA01C1904C04424439401C010E097FE06C0F9
S1130FB01C141D0434F4C601019605C085E090E0BC
S1130FC002C081E090E001110196112331F0212F3C
S1130FD030E02F5F3F4F820F931F252D30E08217A3
S1130FE0930714F4581A01C0512C892D897049F4BF
S1130FF0552039F0B70180E290E00E94630B5A94C7
S1131000F7CF002329F0B701802F90E00E94630BF3
S113101093FC09C0552039F0B70180E390E00E94A9
S1131020630B5A94F7CF97FE4CC04601D7FE02C01B
S1131030812C912CC60188199909F301E80FF91F35
S1131040FE87ED87960124193109388B2F87012FEC
S113105010E01195019511093FEF8316930629F4C9
S1131060B7018EE290E00E94630BC814D9044CF0DF
S11310708F8598898815990524F4ED85FE858181ED
S113108001C080E3F1E08F1A91082D853E852F5F22
S11310903F4F3E872D87801691062CF0B70190E0D4
S11310A00E94630BD9CFC814D90441F49A819633B2
S11310B020F4953319F43C8534FF81E3B70190E0C3
S11310C04EC08A81813319F09C859F7E9C87B7012D
S11310D090E00E94630B111105C094FC18C085E6D2
S11310E090E017C0B7018EE290E00E94630B1E5F90
S11310F082E001E0080FF301E80FF11D8081B701E0
S113110090E00E94630B802F0113F3CFE6CF85E4B8
S113111090E0B7010E94630BD7FC06C0C114D10450
S113112041F4EC85E4FF05C0D194C194D1088DE26B
S113113001C08BE2B70190E00E94630B80E32AE0D8
S1131140C216D1042CF08F5FFAE0CF1AD108F7CF82
S1131150B70190E00E94630BB701C601C0960E94DC
S1131160630B54C1833631F0833779F0833509F04A
S113117056C020C0560132E0A30EB11CF601808196
S1131180898301E010E0630112C05601F2E0AF0E62
S1131190B11CF601C080D18096FE03C0612F70E0BF
S11311A002C06FEF7FEFC6010E94580B8C01F92D2E
S11311B0FF7714C0560122E0A20EB11CF601C080D4
S11311C0D18096FE03C0612F70E002C06FEF7FEF05
S11311D0C6010E944D0B8C01F92DF0689F2EF3FD82
S11311E01AC0852D90E008171907A8F4B70180E20A
S11311F090E00E94630B5A94F4CFF60197FC85911A
S113120097FE81916F01B70190E00E94630B51102A
S11312105A94015011090115110579F7F7C0843664
S113122011F0893661F5560197FE09C024E0A20E3B
S1131230B11CF60160817181828193810AC0F2E060
S1131240AF0EB11CF60160817181072E000C880B72
S1131250990BF92DFF769F2E97FF09C090958095E5
S1131260709561957F4F8F4F9F4FF0689F2E2AE0B6
S113127030E0A3010E949F0BC82EC6183FC0092D61
S1131280853721F40F7E2AE030E01DC0097F8F36B8
S113129091F018F4883559F0C3C0803719F08837B5
S11312A011F0BEC0006104FF09C0046007C094FED1
S11312B008C0066006C028E030E005C020E130E048
S11312C002C020E132E0560107FF09C084E0A80E05
S11312D0B11CF601608171818281938108C0F2E0C2
S11312E0AF0EB11CF6016081718180E090E0A30132
S11312F00E949F0BC82EC6180F77902E96FE0BC027
S1131300092D0E7FC11650F494FE0AC092FC08C049
S1131310092D0E7E05C0DC2C092D03C0DC2C01C078
S1131320D12E04FF0DC0FE01EC0DF11D8081803330
S113133011F4097E09C002FF06C0D394D39404C0FB
S1131340802F867809F0D39403FD11C000FF06C0F6
S11313501C2DD51480F4150D1D190DC0D51458F489
S1131360B70180E290E00E94630BD394F7CFD514C9
S113137010F45D1801C0512C04FF10C0B70180E3C4
S113138090E00E94630B02FF17C001FD03C088E7D1
S113139090E002C088E590E0B7010CC0802F867809
S11313A059F001FF02C08BE201C080E207FD8DE22B
S11313B0B70190E00E94630BC11638F4B70180E3D3
S11313C090E00E94630B1150F7CFCA94F301EC0D27
S11313D0F11D8081B70190E00E94630BC110F5CF2D
S11313E015C0F4E0F51560F584E0581A93FE1FC0AB
S11313F0011127C02C8523FF2AC008E610E0392DEF
S11314003071932EF8018491811124C0552009F480
S1131410E4CCB70180E290E00E94630B5A94F6CFCB
S1131420F7018681978126C08FEF9FEF23C0B70114
S113143080E290E00E94630B5A945110F8CFD8CF09
S1131440512CB701802F90E00E94630BD3CF0CE6A0
S113145010E0D5CF91108052B70190E00E94630B49
S11314600F5F1F4FCFCF23E0251510F483E0BDCFCE
S1131470512CC0CF6096E2E10C945A0A2F923F920D
S11314804F925F926F927F928F929F92AF92BF9290
S1131490CF92DF92EF92FF920F931F93CF93DF933C
S11314A0CDB7DEB7CA1BDB0B0FB6F894DEBF0FBE99
S11314B0CDBF09942A88398848885F846E847D84E6
S11314C08C849B84AA84B984C884DF80EE80FD80E8
S11314D00C811B81AA81B981CE0FD11D0FB6F8945E
S11314E0DEBF0FBECDBFED010895283008F027E020
S11314F03327DA01990F311D87FD9160009661054C
S1131500710539F432602E5F3D9330E32A95E1F79B
S113151008959F3F30F080387105610509F03C5F04
S11315203C5F3D93913008F08068911DDF93CF9329
S11315301F930F93FF92EF92192F987F9695E92F9F
S113154096959695E90FFF27E653FF4F9927332782
S1131550EE24FF24A701E70105900894079428F4DA
S1131560360FE71EF81E491F511D660F771F881F8F
S1131570991F0694A1F70590079428F4E70EF81E26
S1131580491F561FC11D770F881F991F661F069498
S1131590A1F70590079428F4F80E491F561FC71F9A
S11315A0D11D880F991F661F771F0694A1F7059018
S11315B0079420F4490F561FC71FD81F990F661FA1
S11315C0771F881F0694A9F784911095177041F02E
S11315D0D695C79557954795F794E7941A95C1F70B
S11315E0E0E7F0E068941590159135916591959137
S11315F005907FE27395E118F10A430B560BC90B72
S1131600D009C0F7E10CF11E431F561FC91FD01D9E
S11316107EF4703311F48A95E6CFE894015030F0EB
S1131620080F0AF40027021708F4202F2395022F2D
S11316307A3328F079E37D932A95E9F710C07D93F6
S11316402A9589F606949795679537951795179473
S1131650E118F10A430B560BC90BD00998F02395F6
S11316607E9173957A3308F070E37C932013B8F776
S11316707E9170617D9330F0839571E37D9370E387
S11316802A95E1F71124EF90FF900F911F91CF91CC
S1131690DF91992787FD90950895FC01059061508D
S11316A070400110D8F7809590958E0F9F1F089574
S11316B0FC016150704001900110D8F7809590951D
S11316C08E0F9F1F08950F931F93CF93DF93FB01FA
S11316D0238121FD03C08FEF9FEF2CC022FF16C092
S11316E046815781248135814217530744F4A081F0
S11316F0B1819D012F5F3F4F318320838C932681DD
S113170037812F5F3F4F3783268314C08B01EC0151
S1131710FB010084F185E02D0995892BE1F6D801C0
S113172016968D919C911797019617969C938E937C
S11317301697CE01DF91CF911F910F910895FA0171
S1131740AA27283051F1203181F1E8946F936E7FFC
S11317506E5F7F4F8F4F9F4FAF4FB1E03ED0B4E0ED
S11317603CD0670F781F891F9A1FA11D680F791F2E
S11317708A1F911DA11D6A0F711D811D911DA11D3F
S113178020D009F468943F912AE0269F112430194F
S1131790305D3193DEF6CF010895462F4770405DEA
S11317A04193B3E00FD0C9F7F6CF462F4F70405D99
S11317B04A3318F0495D31FD4052419302D0A9F7F4
S11317C0EACFB4E0A6959795879577956795BA95EE
S11317D0C9F700976105710508959B01AC010A2EB4
S11317E006945795479537952795BA95C9F7620F8B
S11117F0731F841F951FA01D0895F894FFCF4A
S11117FE0000000200000000BA060000000017
S9030000FC
